:100000000C943A000C9444000C9444000C9444006A
:100010000C9444000C9444000C9444000C94440050
:100020000C9444000C9444000C9444000C94440040
:100030000C9444000C9444000C9444000C94440030
:100040000C9444000C9444000C9444000C94440020
:100050000C9444000C9444000C9444000C94440010
:100060000C9444000C9444000C9444000C94440000
:100070000C94440011241FBECFEFD4E0DEBFCDBFEF
:100080000E9456000C9459000C940000E1E6F0E048
:1000900080E880831082A89584B7877F84BFE0E6DC
:1000A000F0E0808188618083108208950E9446007C
:0600B000FFCFF894FFCF22
:00000001FF
