:100000000C943A000C9457000C9457000C94570031
:100010000C9457000C9457000C9457000C94570004
:100020000C9457000C9457000C9457000C945700F4
:100030000C9457000C9457000C9457000C945700E4
:100040000C9457000C9457000C9457000C945700D4
:100050000C9457000C9457000C9457000C945700C4
:100060000C9457000C9457000C9457000C945700B4
:100070000C94570011241FBECFEFD4E0DEBFCDBFDC
:1000800013E0A0E0B1E0E6E5FFE002C005900D92CC
:10009000AE3FB107D9F724E0AEEFB3E001C01D9247
:1000A000A531B207E1F70E940E070C94A9070C9442
:1000B00000006230710519F170F46130710559F575
:1000C000FC01FF2724A1392F3095922F932394A36D
:1000D00085A183231DC06330710541F06430710533
:1000E000D1F4FC01FF2784A1892B0FC0FC01FF275D
:1000F00084A1892B84A385A19095892309C0FC0143
:10010000FF2784A1292F2095822384A385A1892BF1
:1001100085A381E0089580E00895E82FF0E0EE0FD8
:10012000FF1FE250FC4F8081882321F0918181E004
:10013000892702C080E090E081700895E82FF0E008
:10014000EE0FFF1FE250FC4F8081811102C08181C0
:1001500002C080E090E081700895E82FF0E0EE0F9B
:10016000FF1FE250FC4F80810895E82FF0E0EE0F72
:10017000FF1FE250FC4F908181E0892708957F9214
:100180008F929F92AF92BF92CF92DF92EF92FF92A7
:100190000F931F93CF93DF93CEEFD3E05AEAC52E90
:1001A00053E0D52E66E0762E88818983F601019191
:1001B00011916F015801BB24F50124A1E12EFF2408
:1001C00085A190E08E219F2130E02E213F21232B1D
:1001D00031F0892B51F433E0832E912C0DC0892B03
:1001E00041F488248394912C07C094E0892E912CAB
:1001F00003C082E0882E912C64E070E0C8010E9468
:10020000590062E070E0C8010E945900872D8A956C
:10021000F1F7F50183A190E0E822F92281E0EF28CF
:1002200009F080E08883B401C8010E945900229639
:10023000F4E0C830DF0709F0B7CFDF91CF911F910D
:100240000F91FF90EF90DF90CF90BF90AF909F9075
:100250008F907F90089508950F931F93CF93C0E0E0
:1002600000E010E08C2F0E948D00882311F001E047
:1002700010E0CF5FC530B1F7C801CF911F910F914A
:10028000089584EF91E00E94C2058EE293E00E94FF
:1002900041058FE00E94310581E090E00C94370524
:1002A0000F931F93CF93DF93CFE3D1E064E070E02F
:1002B000899199910E94590081E0CD34D807B1F716
:1002C000C5E3D1E00FE311E064E070E0899199911A
:1002D0000E9459000C171D07B9F7DF91CF911F91AC
:1002E0000F910895CF93DF93EC018EE293E00E948B
:1002F0004105CE010E9422050E9464030E9446052A
:100300000E94BF000E942C010197B1F7DF91CF91AD
:100310000C9450011F93CF93DF9300D0CDB7DEB77D
:10032000182F80E090E00E94370519831A82CE01D1
:1003300001960E9422050F900F90DF91CF911F919F
:1003400008950F931F93CF93DF938C01C0E0D0E00B
:10035000C017D10721F021960E946403F9CFDF91E5
:10036000CF911F910F9108951F93CF93DF930E9418
:10037000500184ED93E00E9472018DE491E00E94AF
:100380004105C0E0D0E00E9464030E9446050E943F
:10039000BF0080E00E948D00882329F0C230D10583
:1003A000C1F021961EC082E00E948D00882321F0BA
:1003B000209799F0219715C084E00E948D00882332
:1003C00081F0FE01EE5CFE4F80810E94DC0511E0B1
:1003D00009C010E0C0E0D0E005C010E0C2E0D0E00D
:1003E00001C010E0FE01EE5CFE4F80810E948A0198
:1003F000112349F20E945001CE01DF91CF911F914C
:1004000008950F931F93CF938C010E5C1E4FC11163
:1004100013C00E946403F80180810E94DC050E94E1
:10042000D205882319F00E94D405C82F8C2F0E9472
:100430008A010E944605EBCF8C2FCF911F910F911F
:100440000895E1E6F0E080E880831082A89584B703
:10045000877F84BFE0E6F0E080818861808310823E
:1004600008951092800084E08093810010928500AE
:1004700010928400089580918400909185000895E1
:10048000AC0180918400909185009C01241B350B68
:10049000283E3340B0F708952091840030918500C4
:1004A000820F931F0C944002853098F4673088F4D3
:1004B00021E030E001C0220F6A95EAF7E82FF0E072
:1004C000E75FFB4F922F9095808189234111822B0A
:1004D00080830895853080F4673070F421E030E047
:1004E00001C0220F6A95EAF7E82FF0E0E75FFB4FC3
:1004F0008081282381E009F480E008956091080458
:10050000E62FF0E0E75FFB4F80810E94CC028091F4
:1005100008048F5F853018F48093080408951092C2
:1005200008040895E9E0F4E0108211821282138237
:10053000148208950E94AA020C9492029C01FC016C
:10054000FF2784A1832B84A395A1892F832B85A3C7
:1005500081E00895CF93DF93CEEBD3E08991999119
:100560000E949E0283E0CC3CD807C1F783E090E470
:100570000E949E0280E090E80E949E0283E090E14B
:100580000E949E0283E090E80E949E0283E090E237
:10059000DF91CF910C949E02E0910E04F0E0EE0FFB
:1005A000FF1FEC54FC4F20813181F901FF2795A1F9
:1005B000932B95A3EEEBF3E097E020813181D901F5
:1005C000BB2795962C91959780FF03C030952323E8
:1005D00001C0232B95962C938695915032969111BC
:1005E000ECCFE62FF0E0EE0FFF1FEC54FC4F8081C4
:1005F0009181FC01FF2785A19095892385A36093B4
:100600000E040895009789F0FC012381621B67FDA9
:1006100009C0062E000C770B248130E081E06217C0
:1006200073070CF080E08170089580E00895CF9307
:10063000DF93FC01892B79F18181481760F5928164
:10064000291748F59381A62FA91BA7FD24C00A2EC0
:10065000000CBB0BC481D0E0AC17BD07E4F4622FE3
:100660000E942B07480F858190E0BD010E9434074E
:100670000696242F269526952695E80FF91FE20F5A
:10068000F11D808190E0477002C0959587954A954D
:10069000E2F7817001C080E0DF91CF910895CF93A0
:1006A000DF93EC010E9431029E0140E050E062E1E4
:1006B0007AE780E090E00E9459073093120420937B
:1006C0001104DF91CF91089580910F04909110044F
:1006D0000E94400220910F04309110048091110477
:1006E00090911204820F931F9093100480930F0433
:1006F0000895692F0C946A0241E0611101C040E045
:10070000692F0C9454020C947C035F926F927F9239
:100710008F929F92AF92BF92CF92DF92EF92FF9211
:100720000F931F93CF93DF93562E872E942E5C0149
:10073000E62EF72EC62F660FDD0BC81BD10987FDED
:10074000D395072F770F110B091B110997FD1395EF
:10075000D7FF03C077247A9402C07724739417FFDD
:1007600003C066246A9402C066246394D7FF03C062
:10077000D195C195D10917FF03C0119501951109B4
:10078000C017D107A4F06E01D594C794F92EA51413
:1007900011F1692D8A2D9F2D0E947C03C01AD10A68
:1007A000D7FE03C0CC0EDD1EF60CA70CF0CF6801FF
:1007B000D594C794E82EB81471F0692D8E2D9B2D19
:1007C0000E947C03CC1ADD0AD7FE03C0C00ED11EE6
:1007D000E70CB60CF0CF692DC701DF91CF911F91C7
:1007E0000F91FF90EF90DF90CF90BF90AF909F90D0
:1007F0008F907F906F905F900C947C03FF920F938B
:100800001F93CF93DF93D82FF92E162FC72F042FC6
:10081000792F0E948503402F6D2F7C2F8D2F9F2DC8
:100820000E948503402F612F7C2F812F9F2D0E94D6
:100830008503402F612F7C2F8D2F9C2F0E948503D5
:10084000DF91CF911F910F91FF9008950E94920226
:10085000E0E0F1E0118A14860895DF92EF92FF92B2
:100860000F931F93CF93DF93D82E7B01162F0F2D5D
:100870008091020190910301D0E0019799F50F2D2D
:100880000D1BE0910801F09109018181C0E0D817AA
:10089000B8F48091080190910901FC012281C217EE
:1008A00068F42C2F4D2F6D2D0E941703682F8E2D6D
:1008B0008C0F902F0E947C03CF5FEBCFDF5FDFCFE9
:1008C000E0910801F09109018281C81740F460E0CD
:1008D0008E2D8C0F902F0E947C03CF5FF1CF0150A3
:1008E00030C0DF5F1E2D1D0FE0910801F09109015E
:1008F0008181C0E0D817A8F4809108019091090186
:10090000FC012281C21768F72C2F4D2F6D2D0E94FC
:100910001703682F812F9F2D9C0F0E947C03CF5FB0
:10092000EBCFE0910801F09109018281C81740F4F2
:1009300060E0812F9F2D9C0F0E947C03CF5FF1CF41
:100940001F5F812F902FDF91CF911F910F91FF900B
:10095000EF90DF9008950F931F93CF938C01C0E029
:10096000F80181918F01882341F00E942D04BC0180
:10097000CF5F853014F477FFF3CF8C2FCF911F9189
:100980000F9108950F931F93CF93DF9310920C0153
:1009900040930D011092100100910801109109017E
:1009A0000115110509F449C09B01EC01F801818191
:1009B000609106017091070190E00E943407BC012C
:1009C00080910A0190910B010E944507CB016AE0DA
:1009D00070E00E94340790930F0180930E013093D2
:1009E00005012093040140E250E0BE0181E191E065
:1009F0000E949A0780910001909101010197E9F40A
:100A0000FE0101900020E9F73197BF016C1B7D0BBF
:100A1000F80181818F5F0E942B0781502091020194
:100A2000309103012130310511F095E001C097E0CC
:100A3000981718F48EEF80931001DF91CF911F91DA
:100A40000F91089520910201309103012130310569
:100A500011F070E001C076E04FEF60E00E94C20448
:100A6000089590E090930701809306010895909374
:100A70000101809300010895909303018093020186
:100A800008959093090180930801089580911304BB
:100A90009091140401969093140480931304209170
:100AA0000E0130910F018217930708F469C010926C
:100AB000140410921304E0910C01F0E0E050FF4F99
:100AC000818981110AC080910D01823008F458C0DB
:100AD000815080930D0110920C0180910C0190E0E7
:100AE000FC01E050FF4F2189222309F449C04091C5
:100AF000000150910101209110014115510521F093
:100B00004130510599F024C0211122C060910401A7
:100B1000709105018F5E9E4F0E94AB0490E001979B
:100B200090910C01890F80930C0112C06091040117
:100B3000709105014091020150910301413051052E
:100B400011F4720F01C0621B8F5E9E4F0E94AB04B6
:100B5000809110018F5F80931001082E000C990B7B
:100B6000E0910801F0910901218130E0281739074F
:100B70003CF41092100180910C018F5F80930C0166
:100B80000C947E02CF93DF93C0E0D1E09B878A87ED
:100B90000E949A0284E190E09F838E83DF91CF913F
:100BA0000C9426040C943C060C945D060C944206AE
:100BB0000C9448060C944E060E944E060E9448066D
:100BC0008823E1F38CE291E00197F1F70E943C0663
:100BD00081110C94D40508950C946406CF93DF938F
:100BE00000D01F92CDB7DEB78091CC039091CD039A
:100BF000A091CE0389839A83AB83509A589A0E941E
:100C0000D9068FE690E00E94700681E090E00E9495
:100C1000C80661E070E081E090E00E94B4060E94A6
:100C2000A006CE0101960E9424060F900F900F900F
:100C3000DF91CF9108959C01215031093093CD006F
:100C400081508093CC000895CF93DF93EC0188818D
:100C500099810E941B068A819BEF980F943008F0BF
:100C600088E098E19093C9008550880F8093CA006E
:100C700081E0DF91CF9108958091C800881F882777
:100C8000881F08958091C80085FB882780F9089502
:100C90008091C80086FB882780F90895CF93C82FDC
:100CA0000E9442068823E1F38091C800806480930B
:100CB000C800C093CE00CF9108958091C80087FFEF
:100CC000FCCF8091CE000895CF93DF93EC01899102
:100CD000882319F00E944E06FACFDF91CF91089534
:100CE000CF93DF931F92CDB7DEB79E012F5F3F4FAB
:100CF00045E06FEC73E00E94E50691E0980F909359
:100D000031019981915097BD18BC95B5977039F014
:100D100095B5209131012770987F922B95BD29813F
:100D200030E0E82FF0E0E153FC4FC901008002C041
:100D3000880F991F0A94E2F70F90DF91CF910895E1
:100D400085B3897F85BB85B5909131019770887F88
:100D5000892B85BD089585B5887F85BD089585B3A8
:100D600082FB882780F90895009719F0019741F0D8
:100D7000089584B58F736295660F660F607C05C019
:100D800084B563706295607F8F7C682B64BD089525
:100D9000009741F0019759F484B58E7F84BD84B5E6
:100DA000826002C084B58C7F84BD81E0089580E0BC
:100DB000089514BC15BC16BC18BC84B58E7F84BDC8
:100DC00084B5826084BD81E00895CF93DF93DC0118
:100DD000FB0160E070E080E0C1E0D0E08417C9F082
:100DE0009191BE01092E02C0660F771F0A94E2F7A7
:100DF0006F5F7F4F769567956A0F7B1F02C0769570
:100E000067959A95E2F76F3F710519F010F08F5FC3
:100E1000E5CFF9016083DF91CF9108950E9421020F
:100E20000E9441010E9431020E94EE0584EF91E090
:100E30000E944F038EED93E00E9472010E946403B2
:100E40000E94B4010E9401020E948A010E94640370
:100E50000E944605FBCF002480FD060E660F11F0B0
:100E60008695D1F7802D08950024552704C0080EDB
:100E7000591F880F991F009729F076956795B8F349
:100E80007105B9F7802D952F0895AA1BBB1B51E161
:100E900007C0AA1FBB1FA617B70710F0A61BB70BEA
:100EA000881F991F5A95A9F780959095BC01CD018F
:100EB0000895052E97FB1EF400940E94700757FDBD
:100EC00007D00E94780707FC03D04EF40C947007FB
:100ED00050954095309521953F4F4F4F5F4F089566
:100EE00090958095709561957F4F8F4F9F4F089596
:100EF000A1E21A2EAA1BBB1BFD010DC0AA1FBB1F1E
:100F0000EE1FFF1FA217B307E407F50720F0A21B8F
:100F1000B30BE40BF50B661F771F881F991F1A94FC
:100F200069F760957095809590959B01AC01BD0126
:100F3000CF010895FB01DC014150504048F0019081
:100F40000D920020C9F701C01D9241505040E0F7BA
:060F50000895F894FFCFA4
:100F56000000000000001400000000000000000077
:100F6600000000000000000000000000000000007B
:100F7600000000000000000000000000000000006B
:100F860000015052530340008003100380032000E9
:100F960040002000100008000400020001010507BF
:100FA600205F050000000000C6186380014A290082
:100FB60000004A7DF59502C417471F0163222232BD
:100FC60006261551930586080000008808210802A8
:100FD6008220848800805457090080904F080000C2
:100FE6000060880000800F00000000008C010022D5
:100FF6002202002EE63AA303C4104288032E42447E
:10100600C4072E4207A30388A9F411023F8407A34D
:10101600032E8617A3033F424408012E4617A30357
:101026002E460FA303C018600C00C0186088008805
:1010360088200802007CF0010082208888002E4269
:101046004400012E425BAB0344C51F63042FC61741
:10105600E3032E8610A2032FC618E3033F8417C2AC
:10106600073F841742002E861EA30731C61F63045E
:101076008E10428803104218A30331955152042161
:101086008410C20771D71A630471D61C63042EC676
:1010960018A3032FC61742002EC65893052FC6174E
:1010A60063042E0607A3039F1042080131C618A346
:1010B6000331C618150131C65AAB02312AA26204A1
:1010C600312A4208011F2222C207278410C20120AA
:1010D600088220000E218490034445000000000091
:1010E60000C00782200000000038E8A30721B419D9
:1010F600E30300B810A20310DA1CA30700B8F883B4
:10110600034C8A238400C0C7E8A10321B4196304F1
:101116000418428803083084920121A4324A0286C8
:101126001042880300AC5A630400B419630400B883
:1011360018A30300BCF8420000D8EC210400B4193F
:10114600420000B8E0E003421C21240300C418B3A7
:101156000500C418150100C45AAB020044455404E6
:1011660000C4E8A103007C44C40788104108028437
:1011760010420801821044880000888A000001039A
:1011860005203B0200009220EB737D5FDE3DA552F9
:10119600EA7A14004A222229BA2ED0050014C00188
:1011A6000020A4126A2B9A74A372A338ED498F38D3
:1011B600CE2AA712AA2AAE49100410145444380E97
:1011C60011152A250000EA5BEB3A4F726B3BCF7391
:1011D600CF134F7AED5B9774247B5D564972FD5BA6
:1011E6006F5B6F7BEF136F7FEF57CE3897246D7B66
:1011F6006D2BED5FAD5AAD24A7720380034003202B
:101206000080031003400080031003800320004089
:10121600002000100008000400020001D0000800B1
:101226000306080A5049434B204D4F564500574583
:101236004C434F4D4520544F20504150455220536A
:0E124600434953534F525320524F434B000025
:00000001FF
