:100000000C943A000C9457000C9457000C94570031
:100010000C9457000C9457000C9457000C94570004
:100020000C9457000C9457000C9457000C945700F4
:100030000C9457000C9457000C9457000C945700E4
:100040000C9457000C9457000C9457000C945700D4
:100050000C9457000C9457000C9457000C945700C4
:100060000C9457000C9457000C9457000C945700B4
:100070000C94570011241FBECFEFD4E0DEBFCDBFDC
:1000800014E0A0E0B1E0E0E5F2E102C005900D92DD
:10009000A430B107D9F724E0A4E0B4E001C01D9278
:1000A000A132B207E1F70E9467070C9426090C946D
:1000B00000006230710519F170F46130710559F575
:1000C000FC01FF2724A1392F3095922F932394A36D
:1000D00085A183231DC06330710541F06430710533
:1000E000D1F4FC01FF2784A1892B0FC0FC01FF275D
:1000F00084A1892B84A385A19095892309C0FC0143
:10010000FF2784A1292F2095822384A385A1892BF1
:1001100085A381E0089580E00895E82FF0E0EE0FD8
:10012000FF1FEC5FFB4F8081882321F0918181E0EC
:10013000892702C080E090E081700895E82FF0E008
:10014000EE0FFF1FEC5FFB4F8081811102C08181A8
:1001500002C080E090E081700895E82FF0E0EE0F9B
:10016000FF1FEC5FFB4F80810895E82FF0E0EE0F5A
:10017000FF1FEC5FFB4F908181E0892708957F92FC
:100180008F929F92AF92BF92CF92DF92EF92FF92A7
:100190000F931F93CF93DF93C4E0D4E050EBC52EB1
:1001A00053E0D52E66E0762E88818983F601019191
:1001B00011916F015801BB24F50124A1E12EFF2408
:1001C00085A190E08E219F2130E02E213F21232B1D
:1001D00031F0892B51F433E0832E912C0DC0892B03
:1001E00041F488248394912C07C094E0892E912CAB
:1001F00003C082E0882E912C64E070E0C8010E9468
:10020000590062E070E0C8010E945900872D8A956C
:10021000F1F7F50183A190E0E822F92281E0EF28CF
:1002200009F080E08883B401C8010E945900229639
:10023000F4E0CE30DF0709F0B7CFDF91CF911F9107
:100240000F91FF90EF90DF90CF90BF90AF909F9075
:100250008F907F90089508950F931F93CF93C0E0E0
:1002600000E010E08C2F0E948D00882311F001E047
:1002700010E0CF5FC530B1F7C801CF911F910F914A
:10028000089584EF91E00E94C90584E393E00E9401
:1002900048058FE00E94380581E090E00C943E050F
:1002A0000F931F93CF93DF93C5E4D1E064E070E038
:1002B000899199910E94590081E0C335D807B1F71F
:1002C000CBE3D1E005E411E064E070E0899199911D
:1002D0000E9459000C171D07B9F7DF91CF911F91AC
:1002E0000F910895CF93DF93EC0184E393E00E9494
:1002F0004805CE010E9429050E946B030E944D050E
:100300000E94BF000E942C010197B1F7DF91CF91AD
:100310000C9450011F93CF93DF9300D0CDB7DEB77D
:10032000182F80E090E00E943E0519831A82CE01CA
:1003300001960E9429050F900F90DF91CF911F9198
:1003400008950F931F93CF93DF938C01C0E0D0E00B
:10035000C017D10721F021960E946B03F9CFDF91DE
:10036000CF911F910F910895EF92FF921F93CF931A
:10037000DF930E9450018AED93E00E94720183E5B1
:1003800091E00E944805C0E0D0E00E946B030E940B
:100390004D050E94BF0080E00E948D00882329F057
:1003A000C230D10599F0219616C082E00E948D00DE
:1003B000882321F0209769F021970DC084E00E94E6
:1003C0008D00882341F0429A11E006C0C0E0D0E0E1
:1003D00002C0C2E0D0E010E0CE01885C9E4F7C01FC
:1003E000FC0180810E948A01112379F218E40E94A5
:1003F0006B034F9B06C0F70180810E94E305183410
:1004000051F40E94D905882391F30E94DB05182F2F
:1004100088B118B8ECCF812F0E948A010E944D0547
:100420000E945001812F0E948A010E944D05CE0139
:10043000DF91CF911F91FF90EF900895429A0E9413
:10044000D9058823E1F30E94DB058734C1F30895C1
:10045000E1E6F0E080E880831082A89584B7877F8A
:1004600084BFE0E6F0E08081886180831082089597
:100470001092800084E08093810010928500109299
:100480008400089580918400909185000895AC01C6
:1004900080918400909185009C01241B350B283E9F
:1004A0003340B0F708952091840030918500820F89
:1004B000931F0C944702853098F4673088F421E04C
:1004C00030E001C0220F6A95EAF7E82FF0E0E15F23
:1004D000FB4F922F9095808189234111822B80833D
:1004E0000895853080F4673070F421E030E001C079
:1004F000220F6A95EAF7E82FF0E0E15FFB4F808179
:10050000282381E009F480E0089560910E04E62F2D
:10051000F0E0E15FFB4F80810E94D30280910E04E6
:100520008F5F853018F480930E04089510920E04A6
:100530000895EFE0F4E01082118212821382148297
:1005400008950E94B1020C9499029C01FC01FF27BE
:1005500084A1832B84A395A1892F832B85A381E07C
:100560000895CF93DF93C4ECD3E0899199910E94D1
:10057000A50283E0C23DD807C1F783E090E40E9462
:10058000A50280E090E80E94A50283E090E10E942D
:10059000A50283E090E80E94A50283E090E2DF914B
:1005A000CF910C94A502E0911404F0E0EE0FFF1F30
:1005B000E654FC4F20813181F901FF2795A1932B4F
:1005C00095A3E4ECF3E097E020813181D901BB27CA
:1005D00095962C91959780FF03C03095232301C0F9
:1005E000232B95962C938695915032969111ECCFB2
:1005F000E62FF0E0EE0FFF1FE654FC4F8081918163
:10060000FC01FF2785A19095892385A3609314049D
:100610000895009789F0FC012381621B67FD09C0E2
:10062000062E000C770B248130E081E062177307FF
:100630000CF080E08170089580E00895CF93DF93FF
:10064000FC01892B79F18181481760F59281291786
:1006500048F59381A62FA91BA7FD24C00A2E000CE4
:10066000BB0BC481D0E0AC17BD07E4F4622F0E943D
:100670008707480F858190E0BD010E94900706968C
:10068000242F269526952695E80FF91FE20FF11DD8
:10069000808190E0477002C0959587954A95E2F772
:1006A000817001C080E0DF91CF910895CF93DF93F7
:1006B000EC010E9438029E0140E050E062E17AE7DE
:1006C00080E090E00E94B50730931804209317044F
:1006D000DF91CF91089580911504909116040E94A6
:1006E00047022091150430911604809117049091CF
:1006F0001804820F931F9093160480931504089595
:10070000692F0C94710241E0611101C040E0692F32
:100710000C945B020C9483035F926F927F928F9292
:100720009F92AF92BF92CF92DF92EF92FF920F9380
:100730001F93CF93DF93562E872E942E5C01E62EC7
:10074000F72EC62F660FDD0BC81BD10987FDD39589
:10075000072F770F110B091B110997FD1395D7FF71
:1007600003C077247A9402C07724739417FF03C0E0
:1007700066246A9402C066246394D7FF03C0D195AF
:10078000C195D10917FF03C0119501951109C01733
:10079000D107A4F06E01D594C794F92EA51411F1D8
:1007A000692D8A2D9F2D0E948303C01AD10AD7FE7E
:1007B00003C0CC0EDD1EF60CA70CF0CF6801D5945B
:1007C000C794E82EB81471F0692D8E2D9B2D0E94D0
:1007D0008303CC1ADD0AD7FE03C0C00ED11EE70C7E
:1007E000B60CF0CF692DC701DF91CF911F910F910A
:1007F000FF90EF90DF90CF90BF90AF909F908F9041
:100800007F906F905F900C948303FF920F931F93E0
:10081000CF93DF93D82FF92E162FC72F042F792FC0
:100820000E948C03402F6D2F7C2F8D2F9F2D0E94B7
:100830008C03402F612F7C2F812F9F2D0E948C03D2
:10084000402F612F7C2F8D2F9C2F0E948C03DF91D6
:10085000CF911F910F91FF9008950E949902E0E0BF
:10086000F1E0118A14860895DF92EF92FF920F93C0
:100870001F93CF93DF93D82E7B01162F0F2D8091DE
:10088000020190910301D0E0019799F50F2D0D1B06
:10089000E0910801F09109018181C0E0D817B8F416
:1008A0008091080190910901FC012281C21768F42E
:1008B0002C2F4D2F6D2D0E941E03682F8E2D8C0F17
:1008C000902F0E948303CF5FEBCFDF5FDFCFE091FC
:1008D0000801F09109018281C81740F460E08E2D73
:1008E0008C0F902F0E948303CF5FF1CF015030C057
:1008F000DF5F1E2D1D0FE0910801F091090181813C
:10090000C0E0D817A8F48091080190910901FC017A
:100910002281C21768F72C2F4D2F6D2D0E941E03C8
:10092000682F812F9F2D9C0F0E948303CF5FEBCFF9
:10093000E0910801F09109018281C81740F460E05C
:10094000812F9F2D9C0F0E948303CF5FF1CF1F5FEC
:10095000812F902FDF91CF911F910F91FF90EF90FA
:10096000DF9008950F931F93CF938C01C0E0F8019F
:1009700081918F01882341F00E943404BC01CF5F34
:10098000853014F477FFF3CF8C2FCF911F910F9107
:1009900008950F931F93CF93DF9310920C01409310
:1009A0000D0110921001009108011091090101152B
:1009B000110509F449C09B01EC01F80181816091A6
:1009C00006017091070190E00E949007BC018091A0
:1009D0000A0190910B010E94A107CB016AE070E02F
:1009E0000E94900790930F0180930E0130930501B0
:1009F0002093040140E250E0BE0181E191E00E94B9
:100A0000170980910001909101010197E9F4FE011D
:100A100001900020E9F73197BF016C1B7D0BF801B5
:100A200081818F5F0E948707815020910201309160
:100A300003012130310511F095E001C097E09817CE
:100A400018F48EEF80931001DF91CF911F910F91D9
:100A5000089520910201309103012130310511F0F8
:100A600070E001C076E04FEF60E00E94C904089595
:100A700090E09093070180930601089590930101FF
:100A800080930001089590930301809302010895DB
:100A90009093090180930801089580911904909121
:100AA0001A04019690931A048093190420910E0160
:100AB00030910F018217930708F469C010921A044D
:100AC00010921904E0910C01F0E0E050FF4F818991
:100AD00081110AC080910D01823008F458C0815004
:100AE00080930D0110920C0180910C0190E0FC01AB
:100AF000E050FF4F2189222309F449C040910001B1
:100B000050910101209110014115510521F0413012
:100B1000510599F024C0211122C060910401709107
:100B200005018F5E9E4F0E94B20490E00197909164
:100B30000C01890F80930C0112C060910401709127
:100B4000050140910201509103014130510511F41A
:100B5000720F01C0621B8F5E9E4F0E94B204809193
:100B600010018F5F80931001082E000C990BE0910B
:100B70000801F0910901218130E0281739073CF480
:100B80001092100180910C018F5F80930C010C94E6
:100B90008502CF93DF93C0E0D1E09B878A870E94D4
:100BA000A10284E190E09F838E83DF91CF910C942A
:100BB0002D040C9443060C9464060C9449060C9482
:100BC0004F060C9455060E9455060E944F06882336
:100BD000E1F38CE291E00197F1F70E944306811165
:100BE0000C94DB0508950C946B06CF93DF9300D033
:100BF0001F92CDB7DEB78091D2039091D303A0911D
:100C0000D40389839A83AB83509A589A0E94E00652
:100C10008FE690E00E94770681E090E00E94CF0688
:100C200061E070E081E090E00E94BB060E94A706B0
:100C3000CE0101960E942B060F900F900F90DF912E
:100C4000CF9108959C01215031093093CD008150FE
:100C50008093CC000895CF93DF93EC018881998134
:100C60000E9422068A819BEF980F943008F088E05A
:100C700098E19093C9008550880F8093CA0081E065
:100C8000DF91CF9108958091C800881F8827881F21
:100C900008958091C80085FB882780F90895809188
:100CA000C80086FB882780F90895CF93C82F0E943B
:100CB00049068823E1F38091C80080648093C800CE
:100CC000C093CE00CF9108958091C80087FFFCCFDC
:100CD0008091CE000895CF93DF93EC018991882312
:100CE00019F00E945506FACFDF91CF910895CF9366
:100CF000DF931F92CDB7DEB79E012F5F3F4F45E0D8
:100D000065ED73E00E94EC0691E0980F909331013D
:100D10009981915097BD18BC95B5977039F095B5EC
:100D2000209131012770987F922B95BD298130E069
:100D3000E82FF0E0EB52FC4FC901008002C0880FA1
:100D4000991F0A94E2F70F90DF91CF91089585B330
:100D5000897F85BB85B5909131019770887F892BFC
:100D600085BD089585B5887F85BD089585B382FBCF
:100D7000882780F90895009719F0019741F00895A8
:100D800084B58F736295660F660F607C05C084B56D
:100D900063706295607F8F7C682B64BD08950097B7
:100DA00041F0019759F484B58E7F84BD84B582608B
:100DB00002C084B58C7F84BD81E0089580E00895F1
:100DC00014BC15BC16BC18BC84B58E7F84BD84B51C
:100DD000826084BD81E00895CF93DF93DC01FB0145
:100DE00060E070E080E0C1E0D0E08417C9F091914C
:100DF000BE01092E02C0660F771F0A94E2F76F5FEB
:100E00007F4F769567956A0F7B1F02C07695679531
:100E10009A95E2F76F3F710519F010F08F5FE5CFFB
:100E2000F9016083DF91CF91089588E090E00E94FE
:100E3000F607FC0190931C0480931B04118210821E
:100E400013821282158214821782168208958617E1
:100E5000970734F4681B790B6130710529F407C0DA
:100E6000861B970B019719F482E090E0089581E0CA
:100E700090E008950E942707E0911B04F0911C0464
:100E80008130910531F48081918101969183808335
:100E900008C0029731F48281938101969383828303
:100EA00008958481958101969583848386819781B5
:100EB000019697838683089580911B0490911C046A
:100EC000089580911B0490911C040C948E080E943C
:100ED00028020E9441010E9438020E94F5058AB151
:100EE0001AB80E9415078AB11AB83A9A84EF91E0AD
:100EF0000E94560384EE93E00E9472010E946B03ED
:100F00000E94B4010E946B030E944D05FBCF002498
:100F100080FD060E660F11F08695D1F7802D08959D
:100F20000024552704C0080E591F880F991F0097E9
:100F300029F076956795B8F37105B9F7802D952F4F
:100F40000895AA1BBB1B51E107C0AA1FBB1FA61710
:100F5000B70710F0A61BB70B881F991F5A95A9F762
:100F600080959095BC01CD010895052E97FB1EF448
:100F700000940E94CC0757FD07D00E94D40707FCBD
:100F800003D04EF40C94CC075095409530952195A4
:100F90003F4F4F4F5F4F08959095809570956195A5
:100FA0007F4F8F4F9F4F0895A1E21A2EAA1BBB1BA4
:100FB000FD010DC0AA1FBB1FEE1FFF1FA217B30725
:100FC000E407F50720F0A21BB30BE40BF50B661F3B
:100FD000771F881F991F1A9469F7609570958095FF
:100FE00090959B01AC01BD01CF0108950F931F9314
:100FF000CF93DF938230910510F482E090E0E0918E
:101000001F04F091200420E030E0A0E0B0E0309731
:1010100019F1408151810281138148175907C8F0A5
:101020008417950769F4109731F012960C93129774
:1010300013961C9327C000931F041093200422C012
:101040002115310519F04217530718F49A01BD0113
:10105000EF01DF01F801DBCF21153105F9F0281B85
:10106000390B2430310580F48A819B81611571052B
:1010700021F0FB019383828304C09093200480932A
:101080001F04FE01329644C0FE01E20FF31F81935C
:10109000919322503109398328833AC020911D044D
:1010A00030911E04232B41F42091340130913501FD
:1010B00030931E0420931D0420913201309133019E
:1010C0002115310541F42DB73EB7409136015091BD
:1010D0003701241B350BE0911D04F0911E04E2172B
:1010E000F307A0F42E1B3F0B2817390778F0AC014B
:1010F0004E5F5F4F2417350748F04E0F5F1F509328
:101100001E0440931D048193919302C0E0E0F0E03F
:10111000CF01DF91CF911F910F910895CF93DF936E
:10112000009709F481C0FC01329713821282A091CA
:101130001F04B0912004109781F420813181820F27
:10114000931F20911D0430911E042817390751F573
:10115000F0931E04E0931D0467C0ED0120E030E031
:10116000CE17DF0740F44A815B819E01411551058E
:10117000F1F0EA01F5CFD383C28340815181840F1E
:10118000951FC817D90759F488819981840F951F35
:101190000296918380838A819B8193838283211528
:1011A000310529F4F0932004E0931F043DC0E901C8
:1011B000FB83EA8349915991C40FD51FEC17FD07B2
:1011C00061F480819181840F951F0296E9019983D2
:1011D0008883828193819B838A83E0E0F0E012968A
:1011E0008D919C911397009719F0FD01DC01F7CFC9
:1011F0008D919C9111979D012E5F3F4F820F931F00
:1012000020911D0430911E042817390769F4309786
:1012100029F41092200410921F0402C0138212823B
:10122000B0931E04A0931D04DF91CF910895FB019C
:10123000DC014150504048F001900D920020C9F768
:1012400001C01D9241505040E0F70895F894FFCF3F
:10125000000000000000140000000000000000007A
:10126000000000000000000000000000000000007E
:10127000000000000000000000000000000000006E
:10128000000100002104200050525303400080035D
:10129000100380032000400020001000080004001C
:1012A000020001010507205F050000000000C618CC
:1012B0006380014A290000004A7DF59502C4174762
:1012C0001F0163222232062615519305860800006D
:1012D0000088082108028220848800805457090071
:1012E00080904F0800000060880000800F00000020
:1012F00000008C0100222202002EE63AA303C41053
:101300004288032E4244C4072E4207A30388A9F44F
:1013100011023F8407A3032E8617A3033F4244080C
:10132000012E4617A3032E460FA303C018600C001E
:10133000C0186088008888200802007CF0010082C4
:10134000208888002E424400012E425BAB0344C536
:101350001F63042FC617E3032E8610A2032FC6189F
:10136000E3033F8417C2073F841742002E861EA363
:101370000731C61F63048E10428803104218A3036E
:101380003195515204218410C20771D71A63047138
:10139000D61C63042EC618A3032FC61742002EC600
:1013A0005893052FC61763042E0607A3039F104208
:1013B000080131C618A30331C618150131C65AAB4E
:1013C00002312AA26204312A4208011F2222C207E6
:1013D000278410C20120088220000E21849003443B
:1013E00045000000000000C0078220000000003817
:1013F000E8A30721B419E30300B810A20310DA1C14
:10140000A30700B8F883034C8A238400C0C7E8A16F
:101410000321B4196304041842880308308492013C
:1014200021A4324A02861042880300AC5A630400A9
:10143000B419630400B818A30300BCF8420000D834
:10144000EC210400B419420000B8E0E003421C2182
:10145000240300C418B30500C418150100C45AAB16
:1014600002004445540400C4E8A103007C44C407BE
:10147000881041080284104208018210448800004C
:10148000888A0000010305203B0200009220EB73D4
:101490007D5FDE3DA552EA7A14004A222229BA2E47
:1014A000D0050014C0010020A4126A2B9A74A37204
:1014B000A338ED498F38CE2AA712AA2AAE491004C4
:1014C00010145444380E11152A250000EA5BEB3A3B
:1014D0004F726B3BCF73CF134F7AED5B9774247BC6
:1014E0005D564972FD5B6F5B6F7BEF136F7FEF574C
:1014F000CE3897246D7B6D2BED5FAD5AAD24A7726E
:101500000380034003200080031003400080031089
:1015100003800320004000200010000800040002A7
:101520000001D00008000306080A5049434B204D33
:101530004F56450057454C434F4D4520544F205082
:10154000415045522053434953534F525320524F19
:04155000434B000009
:00000001FF
