:100000000C943A000C9457000C9457000C94570031
:100010000C9457000C9457000C9457000C94570004
:100020000C9457000C9457000C9457000C945700F4
:100030000C9457000C9457000C9457000C945700E4
:100040000C9457000C9457000C9457000C945700D4
:100050000C9457000C9457000C9457000C945700C4
:100060000C9457000C9457000C9457000C945700B4
:100070000C94570011241FBECFEFD4E0DEBFCDBFDC
:1000800013E0A0E0B1E0E2E8FCE002C005900D92D0
:10009000A43FB107D9F724E0A4EFB3E001C01D925B
:1000A000AB30B207E1F70E945C050C943F060C945C
:1000B00000006230710519F170F46130710559F575
:1000C000FC01FF2724A1392F3095922F932394A36D
:1000D00085A183231DC06330710541F06430710533
:1000E000D1F4FC01FF2784A1892B0FC0FC01FF275D
:1000F00084A1892B84A385A19095892309C0FC0143
:10010000FF2784A1292F2095822384A385A1892BF1
:1001100085A381E0089580E00895E82FF0E0EE0FD8
:10012000FF1FEC50FC4F8081882321F0918181E0FA
:10013000892702C080E090E081700895E82FF0E008
:10014000EE0FFF1FEC50FC4F8081811102C08181B6
:1001500002C080E090E081700895E82FF0E0EE0F9B
:10016000FF1FEC50FC4F80810895E82FF0E0EE0F68
:10017000FF1FEC50FC4F908181E0892708957F920A
:100180008F929F92AF92BF92CF92DF92EF92FF92A7
:100190000F931F93CF93DF93C4EFD3E059EAC52E9B
:1001A00053E0D52E66E0762E88818983F601019191
:1001B00011916F015801BB24F50124A1E12EFF2408
:1001C00085A190E08E219F2130E02E213F21232B1D
:1001D00031F0892B51F433E0832E912C0DC0892B03
:1001E00041F488248394912C07C094E0892E912CAB
:1001F00003C082E0882E912C64E070E0C8010E9468
:10020000590062E070E0C8010E945900872D8A956C
:10021000F1F7F50183A190E0E822F92281E0EF28CF
:1002200009F080E08883B401C8010E945900229639
:10023000F3E0CE3FDF0709F0B7CFDF91CF911F91F9
:100240000F91FF90EF90DF90CF90BF90AF909F9075
:100250008F907F90089508950F931F93CF93C0E0E0
:1002600000E010E08C2F0E948D00882311F001E047
:1002700010E0CF5FC530B1F7C801CF911F910F914A
:10028000089584EF91E00E944C058DE293E00E9476
:10029000CB048FE00E94BB0481E090E00C94C10489
:1002A0000F931F93CF93DF93CEE3D1E064E070E030
:1002B000899199910E94590081E0CC34D807B1F717
:1002C000C4E3D1E00EE311E064E070E0899199911C
:1002D0000E9459000C171D07B9F7DF91CF911F91AC
:1002E0000F9108950E94AC040E94EE020E94D00477
:1002F0000E94BF000E942C010197B1F70C9450019D
:10030000BC0180E090E024E83EE140E050E00E9443
:10031000C20528EE33E040E050E00E94EF05109265
:10032000850010928400809184009091850082174E
:100330009307C8F30895CF93DF9300D0CDB7DEB70E
:1003400089831A82CE0101960E94AC040F900F900F
:10035000DF91CF910895E1E6F0E080E8808310829C
:10036000A89584B7877F84BFE0E6F0E0808188614C
:100370008083108208951092800084E08093810031
:1003800010928500109284000895809184009091CD
:1003900085000895AC0180918400909185009C01B6
:1003A000241B350B283E3340B0F70895209184007C
:1003B00030918500820F931F0C94CA01853098F408
:1003C000673088F421E030E001C0220F6A95EAF737
:1003D000E82FF0E0E150FC4F922F90958081892327
:1003E0004111822B80830895853080F4673070F44A
:1003F00021E030E001C0220F6A95EAF7E82FF0E033
:10040000E150FC4F8081282381E009F480E00895C9
:100410006091FE03E62FF0E0E150FC4F80810E94E6
:1004200056028091FE038F5F853018F48093FE039F
:1004300008951092FE030895EFEFF3E01082118209
:1004400012821382148208950E9434020C941C02BA
:100450009C01FC01FF2784A1832B84A395A1892FF4
:10046000832B85A381E00895CF93DF93CDEBD3E079
:10047000899199910E94280283E0CB3CD807C1F76B
:1004800083E090E40E94280280E090E80E94280225
:1004900083E090E10E94280283E090E80E94280215
:1004A00083E090E2DF91CF910C942802E091040464
:1004B000F0E0EE0FFF1FED54FC4F20813181F90178
:1004C000FF2795A1932B95A3EDEBF3E097E0208117
:1004D0003181D901BB2795962C91959780FF03C058
:1004E0003095232301C0232B95962C93869591500C
:1004F00032969111ECCFE62FF0E0EE0FFF1FED5496
:10050000FC4F80819181FC01FF2785A19095892373
:1005100085A3609304040895009789F0FC0123816A
:10052000621B67FD09C0062E000C770B248130E0AA
:1005300081E0621773070CF080E08170089580E01D
:100540000895CF93DF93FC01892B79F181814817BE
:1005500060F59281291748F59381A62FA91BA7FD65
:1005600024C00A2E000CBB0BC481D0E0AC17BD0721
:10057000E4F4622F0E94A805480F858190E0BD0138
:100580000E94B1050696242F269526952695E80FFC
:10059000F91FE20FF11D808190E0477002C0959530
:1005A00087954A95E2F7817001C080E0DF91CF9195
:1005B0000895CF93DF93EC010E94BB019E0140E0C0
:1005C00050E062E17AE780E090E00E94EF0530932E
:1005D000080420930704DF91CF91089580910504CA
:1005E000909106040E94CA012091050430910604EE
:1005F0008091070490910804820F931F9093060442
:10060000809305040895692F0C94F40141E0611171
:1006100001C040E0692F0C94DE010C9406035F9248
:100620006F927F928F929F92AF92BF92CF92DF9202
:10063000EF92FF920F931F93CF93DF93562E872E47
:10064000942E5C01E62EF72EC62F660FDD0BC81B1D
:10065000D10987FDD395072F770F110B091B1109BE
:1006600097FD1395D7FF03C077247A9402C07724AF
:10067000739417FF03C066246A9402C066246394CF
:10068000D7FF03C0D195C195D10917FF03C01195BC
:1006900001951109C017D107A4F06E01D594C79434
:1006A000F92EA51411F1692D8A2D9F2D0E940603A4
:1006B000C01AD10AD7FE03C0CC0EDD1EF60CA70C63
:1006C000F0CF6801D594C794E82EB81471F0692D65
:1006D0008E2D9B2D0E940603CC1ADD0AD7FE03C087
:1006E000C00ED11EE70CB60CF0CF692DC701DF910B
:1006F000CF911F910F91FF90EF90DF90CF90BF901F
:10070000AF909F908F907F906F905F900C940603B6
:10071000FF920F931F93CF93DF93D82FF92E162FAD
:10072000C72F042F792F0E940F03402F6D2F7C2F8E
:100730008D2F9F2D0E940F03402F612F7C2F812F23
:100740009F2D0E940F03402F612F7C2F8D2F9C2FF8
:100750000E940F03DF91CF911F910F91FF90089599
:100760000E941C02E0E0F1E0118A14860895DF92F5
:10077000EF92FF920F931F93CF93DF93D82E7B01BD
:10078000162F0F2D8091020190910301D0E0019767
:1007900099F50F2D0D1BE0910801F0910901818160
:1007A000C0E0D817B8F48091080190910901FC01CC
:1007B0002281C21768F42C2F4D2F6D2D0E94A102AB
:1007C000682F8E2D8C0F902F0E940603CF5FEBCFEA
:1007D000DF5FDFCFE0910801F09109018281C81746
:1007E00040F460E08E2D8C0F902F0E940603CF5FA7
:1007F000F1CF015030C0DF5F1E2D1D0FE0910801C9
:10080000F09109018181C0E0D817A8F48091080116
:1008100090910901FC012281C21768F72C2F4D2FFE
:100820006D2D0E94A102682F812F9F2D9C0F0E9489
:100830000603CF5FEBCFE0910801F09109018281BF
:10084000C81740F460E0812F9F2D9C0F0E94060383
:10085000CF5FF1CF1F5F812F902FDF91CF911F913D
:100860000F91FF90EF90DF9008950F931F93CF9318
:100870008C01C0E0F80181918F01882341F00E9432
:10088000B703BC01CF5F853014F477FFF3CF8C2F13
:10089000CF911F910F9108950F931F93CF93DF93E3
:1008A00010920C0140930D0110921001009108016B
:1008B000109109010115110509F449C09B01EC01D2
:1008C000F8018181609106017091070190E00E941A
:1008D000B105BC0180910A0190910B010E94DB05DA
:1008E000CB016AE070E00E94B10590930F01809304
:1008F0000E01309305012093040140E250E0BE0157
:1009000081E191E00E943006809100019091010107
:100910000197E9F4FE0101900020E9F73197BF014A
:100920006C1B7D0BF80181818F5F0E94A8058150AF
:1009300020910201309103012130310511F095E041
:1009400001C097E0981718F48EEF80931001DF91A3
:10095000CF911F910F9108952091020130910301D1
:100960002130310511F070E001C076E04FEF60E01A
:100970000E944C04089590E0909307018093060133
:1009800008959093010180930001089590930301CD
:1009900080930201089590930901809308010895BE
:1009A0008091090490910A04019690930A0480931F
:1009B000090420910E0130910F018217930708F46A
:1009C00069C010920A0410920904E0910C01F0E051
:1009D000E050FF4F818981110AC080910D01823062
:1009E00008F458C0815080930D0110920C01809141
:1009F0000C0190E0FC01E050FF4F2189222309F413
:100A000049C0409100015091010120911001411510
:100A1000510521F04130510599F024C0211122C027
:100A200060910401709105018F5E9E4F0E94350414
:100A300090E0019790910C01890F80930C0112C0F6
:100A400060910401709105014091020150910301F0
:100A50004130510511F4720F01C0621B8F5E9E4F31
:100A60000E943504809110018F5F80931001082E41
:100A7000000C990BE0910801F0910901218130E00F
:100A8000281739073CF41092100180910C018F5FF8
:100A900080930C010C940802CF93DF93C0E0D1E067
:100AA0009B878A870E94240284E190E09F838E8343
:100AB000DF91CF910C94B003CF93DF930E94AB01F1
:100AC0000E9441010E94BB0184EF91E00E94D90283
:100AD0008BEC93E00E9472010E94EE028AEE93E09A
:100AE0000E9472018CE491E00E94CB04C0E0D0E04F
:100AF0000E94EE020E94D0040E94BF0080E00E948B
:100B00008D00882329F0C230D10589F0219614C0C8
:100B100082E00E948D00882321F0209759F02197D0
:100B20000BC084E00E948D00882331F00CC0C0E02F
:100B3000D0E002C0C2E0D0E0FE01EF5CFE4F808159
:100B40000E949B01D5CF80E090E0DF91CF91089586
:100B5000002480FD060E660F11F08695D1F7802DDA
:100B600008950024552704C0080E591F880F991FA7
:100B7000009729F076956795B8F37105B9F7802D40
:100B8000952F0895EE27FF27AA27BB2708C0A20F9D
:100B9000B31FE41FF51F220F331F441F551F9695E7
:100BA00087957795679598F37040A9F7009799F71F
:100BB000BD01CF010895AA1BBB1B51E107C0AA1FAD
:100BC000BB1FA617B70710F0A61BB70B881F991FEE
:100BD0005A95A9F780959095BC01CD010895052EF1
:100BE00097FB1EF400940E94060657FD07D00E9452
:100BF0000E0607FC03D04EF40C9406065095409563
:100C0000309521953F4F4F4F5F4F089590958095B8
:100C1000709561957F4F8F4F9F4F0895A1E21A2ED7
:100C2000AA1BBB1BFD010DC0AA1FBB1FEE1FFF1F90
:100C3000A217B307E407F50720F0A21BB30BE40BE0
:100C4000F50B661F771F881F991F1A9469F7609527
:100C50007095809590959B01AC01BD01CF010895E1
:100C6000FB01DC014150504048F001900D92002002
:100C7000C9F701C01D9241505040E0F70895F89423
:020C8000FFCFA4
:100C8200000000000000140000000000000000004E
:100C92000000000000000000000000000000000052
:100CA2000000000000000000000000000000000042
:100CB2000052505303400080031003800320004081
:100CC20000200010000800040002000101050720B6
:100CD2005F050000000000C6186380014A29000079
:100CE200004A7DF59502C417471F0163222232068E
:100CF2002615519305860800000088082108028203
:100D020020848800805457090080904F080000001A
:100D120060880000800F00000000008C0100222289
:100D220002002EE63AA303C4104288032E4244C4B2
:100D3200072E4207A30388A9F411023F8407A303E5
:100D42002E8617A3033F424408012E4617A3032E03
:100D5200460FA303C018600C00C018608800888882
:100D6200200802007CF0010082208888002E424484
:100D720000012E425BAB0344C51F63042FC617E379
:100D8200032E8610A2032FC618E3033F8417C2075F
:100D92003F841742002E861EA30731C61F63048EAE
:100DA20010428803104218A3033195515204218442
:100DB20010C20771D71A630471D61C63042EC618B9
:100DC200A3032FC61742002EC65893052FC61763DA
:100DD200042E0607A3039F1042080131C618A3037D
:100DE20031C618150131C65AAB02312AA26204314A
:100DF2002A4208011F2222C207278410C2012008AA
:100E02008220000E2184900344450000000000006F
:100E1200C00782200000000038E8A30721B419E3CC
:100E22000300B810A20310DA1CA30700B8F883036A
:100E32004C8A238400C0C7E8A10321B419630404C7
:100E420018428803083084920121A4324A02861093
:100E520042880300AC5A630400B419630400B81852
:100E6200A30300BCF8420000D8EC210400B41942EC
:100E72000000B8E0E003421C21240300C418B305BB
:100E820000C418150100C45AAB02004445540400C2
:100E9200C4E8A103007C44C40788104108028410FE
:100EA200420801821044880000888A00000103057C
:100EB200203B0200009220EB737D5FDE3DA552EAEB
:100EC2007A14004A222229BA2ED0050014C0010049
:100ED20020A4126A2B9A74A372A338ED498F38CEDC
:100EE2002AA712AA2AAE49100410145444380E112B
:100EF200152A250000EA5BEB3A4F726B3BCF73CFAA
:100F0200134F7AED5B9774247B5D564972FD5B6FDC
:100F12005B6F7BEF136F7FEF57CE3897246D7B6D3E
:100F22002BED5FAD5AAD24A772038003400320006E
:100F32008003100340008003100380032000400060
:100F4200200010000800040002000157454C434FE6
:100F52004D4520544F205041504552205343495350
:100F6200534F525320524F434B005049434B204D55
:040F72004F56450091
:00000001FF
