:100000000C943A000C9457000C9457000C94570031
:100010000C9457000C9457000C9457000C94570004
:100020000C9457000C9457000C9457000C945700F4
:100030000C9457000C9457000C9457000C945700E4
:100040000C9457000C9457000C9457000C945700D4
:100050000C9457000C9457000C9457000C945700C4
:100060000C9457000C9457000C9457000C945700B4
:100070000C94570011241FBECFEFD4E0DEBFCDBFDC
:1000800012E0A0E0B1E0E6E8FBE002C005900D92CE
:10009000AE30B107D9F722E0AEE0B2E001C01D9268
:1000A000A532B207E1F70E9430050C94C1050C940B
:1000B00000006230710519F170F46130710559F575
:1000C000FC01FF2724A1392F3095922F932394A36D
:1000D00085A183231DC06330710541F06430710533
:1000E000D1F4FC01FF2784A1892B0FC0FC01FF275D
:1000F00084A1892B84A385A19095892309C0FC0143
:10010000FF2784A1292F2095822384A385A1892BF1
:1001100085A381E0089580E00895E82FF0E0EE0FD8
:10012000FF1FE25FFD4F8081882321F0918181E0F4
:10013000892702C080E090E081700895E82FF0E008
:10014000EE0FFF1FE25FFD4F8081811102C08181B0
:1001500002C080E090E081700895E82FF0E0EE0F9B
:10016000FF1FE25FFD4F80810895E82FF0E0EE0F62
:10017000FF1FE25FFD4F908181E0892708957F9204
:100180008F929F92AF92BF92CF92DF92EF92FF92A7
:100190000F931F93CF93DF93CEE0D2E055ECC52EA3
:1001A00051E0D52E66E0762E88818983F601019193
:1001B00011916F015801BB24F50124A1E12EFF2408
:1001C00085A190E08E219F2130E02E213F21232B1D
:1001D00031F0892B51F433E0832E912C0DC0892B03
:1001E00041F488248394912C07C094E0892E912CAB
:1001F00003C082E0882E912C64E070E0C8010E9468
:10020000590062E070E0C8010E945900872D8A956C
:10021000F1F7F50183A190E0E822F92281E0EF28CF
:1002200009F080E08883B401C8010E945900229639
:10023000F2E0C831DF0709F0B7CFDF91CF911F910E
:100240000F91FF90EF90DF90CF90BF90AF909F9075
:100250008F907F90089508950F931F93CF93C0E0E0
:1002600000E010E08C2F0E948D00882311F001E047
:1002700010E0CF5FC530B1F7C801CF911F910F914A
:10028000089584EF91E00E94200589E491E00E94A6
:100290009F048FE00E948F0481E090E00C9495040D
:1002A0000F931F93CF93DF930E9480040E94C2029A
:1002B0000E94A4040E94BF000E942C010197B1F784
:1002C000CBE3D1E009E411E064E070E08991999119
:1002D0000E9459000C171D07B9F7C1E3D1E00BE3E9
:1002E00011E064E070E0899199910E9459000C1727
:1002F0001D07B9F7DF91CF911F910F910895E1E6A6
:10030000F0E080E880831082A89584B7877F84BF5F
:10031000E0E6F0E080818861808310820895109289
:10032000800084E080938100109285001092840008
:10033000089580918400909185000895AC0180918A
:100340008400909185009C01241B350B283E33408E
:10035000B0F708952091840030918500820F931F9B
:100360000C949E01853098F4673088F421E030E0E9
:1003700001C0220F6A95EAF7E82FF0E0E75EFD4F33
:10038000922F9095808189234111822B808308953B
:10039000853080F4673070F421E030E001C0220F36
:1003A0006A95EAF7E82FF0E0E75EFD4F80812823A9
:1003B00081E009F480E0089560911802E62FF0E0F2
:1003C000E75EFD4F80810E942A02809118028F5FB4
:1003D000853018F480931802089510921802089539
:1003E000E9E1F2E0108211821282138214820895F0
:1003F0000E9408020C94F0019C01FC01FF2784A1DB
:10040000832B84A395A1892F832B85A381E0089555
:10041000CF93DF93C9EDD1E0899199910E94FC01BE
:1004200081E0C73ED807C1F783E090E40E94FC0159
:1004300080E090E80E94FC0183E090E10E94FC01D2
:1004400083E090E80E94FC0183E090E2DF91CF918D
:100450000C94FC01E0911E02F0E0EE0FFF1FE1534F
:10046000FE4F20813181F901FF2795A1932B95A3A0
:10047000E9EDF1E097E020813181D901BB27959624
:100480002C91959780FF03C03095232301C0232B27
:1004900095962C938695915032969111ECCFE62F3C
:1004A000F0E0EE0FFF1FE153FE4F80819181FC01D0
:1004B000FF2785A19095892385A360931E02089547
:1004C000009789F0FC012381621B67FD09C0062E9D
:1004D000000C770B248130E081E0621773070CF089
:1004E00080E08170089580E00895CF93DF93FC0150
:1004F000892B79F18181481760F59281291748F598
:100500009381A62FA91BA7FD24C00A2E000CBB0BAC
:10051000C481D0E0AC17BD07E4F4622F0E9443050C
:10052000480F858190E0BD010E944C050696242F5E
:10053000269526952695E80FF91FE20FF11D80817B
:1005400090E0477002C0959587954A95E2F78170D3
:1005500001C080E0DF91CF910895CF93DF93EC014C
:100560000E948F019E0140E050E062E17AE780E066
:1005700090E00E9471053093220220932102DF91C6
:10058000CF91089580911F02909120020E949E01B8
:1005900020911F023091200280912102909122022D
:1005A000820F931F9093200280931F020895692F5A
:1005B0000C94C80141E0611101C040E0692F0C9426
:1005C000B2010C94DA025F926F927F928F929F92A7
:1005D000AF92BF92CF92DF92EF92FF920F931F9351
:1005E000CF93DF93562E872E942E5C01E62EF72EA6
:1005F000C62F660FDD0BC81BD10987FDD395072FCA
:10060000770F110B091B110997FD1395D7FF03C035
:1006100077247A9402C07724739417FF03C066246A
:100620006A9402C066246394D7FF03C0D195C19534
:10063000D10917FF03C0119501951109C017D10702
:10064000A4F06E01D594C794F92EA51411F1692D6B
:100650008A2D9F2D0E94DA02C01AD10AD7FE03C04C
:10066000CC0EDD1EF60CA70CF0CF6801D594C79414
:10067000E82EB81471F0692D8E2D9B2D0E94DA02A0
:10068000CC1ADD0AD7FE03C0C00ED11EE70CB60C93
:10069000F0CF692DC701DF91CF911F910F91FF908E
:1006A000EF90DF90CF90BF90AF909F908F907F9012
:1006B0006F905F900C94DA02FF920F931F93CF9389
:1006C000DF93D82FF92E162FC72F042F792F0E94D2
:1006D000E302402F6D2F7C2F8D2F9F2D0E94E30270
:1006E000402F612F7C2F812F9F2D0E94E302402FEE
:1006F000612F7C2F8D2F9C2F0E94E302DF91CF91E1
:100700001F910F91FF9008950E94F001E0E0F1E049
:10071000118A14860895DF92EF92FF920F931F9330
:10072000CF93DF93D82E7B01162F0F2D80910201DE
:1007300090910301D0E0019799F50F2D0D1BE091E9
:100740000801F09109018181C0E0D817B8F48091C7
:10075000080190910901FC012281C21768F42C2F35
:100760004D2F6D2D0E947502682F8E2D8C0F902FAE
:100770000E94DA02CF5FEBCFDF5FDFCFE0910801AD
:10078000F09109018281C81740F460E08E2D8C0F32
:10079000902F0E94DA02CF5FF1CF015030C0DF5FAF
:1007A0001E2D1D0FE0910801F09109018181C0E02B
:1007B000D817A8F48091080190910901FC012281C9
:1007C000C21768F72C2F4D2F6D2D0E947502682FD0
:1007D000812F9F2D9C0F0E94DA02CF5FEBCFE0911B
:1007E0000801F09109018281C81740F460E0812F6F
:1007F0009F2D9C0F0E94DA02CF5FF1CF1F5F812FE8
:10080000902FDF91CF911F910F91FF90EF90DF908C
:1008100008950F931F93CF938C01C0E0F80181914D
:100820008F01882341F00E948B03BC01CF5F85308C
:1008300014F477FFF3CF8C2FCF911F910F91089570
:100840000F931F93CF93DF9310920C0140930D01F0
:100850001092100100910801109109010115110574
:1008600009F449C09B01EC01F80181816091060106
:100870007091070190E00E944C05BC0180910A0133
:1008800090910B010E945D05CB016AE070E00E942F
:100890004C0590930F0180930E0130930501209336
:1008A000040140E250E0BE0181E191E00E94B20506
:1008B00080910001909101010197E9F4FE010190FE
:1008C0000020E9F73197BF016C1B7D0BF801818196
:1008D0008F5F0E94430581502091020130910301F6
:1008E0002130310511F095E001C097E0981718F418
:1008F0008EEF80931001DF91CF911F910F9108959A
:1009000020910201309103012130310511F070E096
:1009100001C076E04FEF60E00E942004089590E06F
:1009200090930701809306010895909301018093AD
:10093000000108959093030180930201089590931C
:100940000901809308010895809123029091240267
:100950000196909324028093230220910E013091FE
:100960000F018217930708F469C0109224021092B5
:100970002302E0910C01F0E0E050FF4F81898111EA
:100980000AC080910D01823008F458C081508093D4
:100990000D0110920C0180910C0190E0FC01E050DF
:1009A000FF4F2189222309F449C040910001509151
:1009B0000101209110014115510521F041305105EF
:1009C00099F024C0211122C06091040170910501A9
:1009D0008F5E9E4F0E94090490E0019790910C0158
:1009E000890F80930C0112C0609104017091050180
:1009F00040910201509103014130510511F4720FF1
:100A000001C0621B8F5E9E4F0E94090480911001FD
:100A10008F5F80931001082E000C990BE091080164
:100A2000F0910901218130E0281739073CF4109238
:100A3000100180910C018F5F80930C010C94DC01FC
:100A4000CF93DF93C0E0D1E09B878A870E94F801B3
:100A500084E190E09F838E83DF91CF910C94840397
:100A60000E947F010E94410184EF91E00E94AD024B
:100A700087EE91E00E94500186E092E00E945001D2
:100A80000E94C202FDCF002480FD060E660F11F009
:100A90008695D1F7802D08950024552704C0080EAF
:100AA000591F880F991F009729F076956795B8F31D
:100AB0007105B9F7802D952F0895AA1BBB1B51E135
:100AC00007C0AA1FBB1FA617B70710F0A61BB70BBE
:100AD000881F991F5A95A9F780959095BC01CD0163
:100AE0000895052E97FB1EF400940E94880557FD7B
:100AF00007D00E94900507FC03D04EF40C948805A3
:100B000050954095309521953F4F4F4F5F4F089539
:100B100090958095709561957F4F8F4F9F4F089569
:100B2000A1E21A2EAA1BBB1BFD010DC0AA1FBB1FF1
:100B3000EE1FFF1FA217B307E407F50720F0A21B63
:100B4000B30BE40BF50B661F771F881F991F1A94D0
:100B500069F760957095809590959B01AC01BD01FA
:100B6000CF010895FB01DC014150504048F0019055
:100B70000D920020C9F701C01D9241505040E0F78E
:060B80000895F894FFCF78
:100B8600000000000000140000000000000000004B
:100B9600000000000000000000000000000000004F
:100BA600000000000000000000000000000000003F
:100BB6000003400080031003800320004000200053
:100BC600100008000400020001010305203B02009A
:100BD600009220EB737D5FDE3DA552EA7A14004A4F
:100BE600222229BA2ED0050014C0010020A4126AC0
:100BF6002B9A74A372A338ED498F38CE2AA712AA6E
:100C06002AAE49100410145444380E11152A250032
:100C160000EA5BEB3A4F726B3BCF73CF134F7AED23
:100C26005B9774247B5D564972FD5B6F5B6F7BEF50
:100C3600136F7FEF57CE3897246D7B6D2BED5FAD2D
:100C46005AAD24A7720380034003200080031003DB
:100C560040008003100380032000400020001000A5
:100C66000800040002000157454C434F4D452054EF
:100C76004F2050415045522053434953534F5253EE
:0E0C860020524F434B0053454C454354000051
:00000001FF
